:020000040000FA
:100000000C945D000C9485000C9485000C94850084
:100010000C9485000C9485000C9485000C9485004C
:100020000C9485000C9485000C9485000C94CA04F3
:100030000C9485000C9485000C9485000C9485002C
:100040000C9480040C9485000C944E040C942804A9
:100050000C9485000C9485000C9485000C9485000C
:100060000C9485000C94850000000008000201003B
:100070000003040700000000000000000000000072
:10008000250028002B0000000000240027002A0083
:10009000040404040404040402020202020203032E
:1000A0000303030301020408102040800102040836
:1000B0001020010204081020860511241FBECFEF76
:1000C000D8E0DEBFCDBF11E0A0E0B1E0E2E7F6E1AD
:1000D00002C005900D92A635B107D9F722E0A6E53A
:1000E000B1E001C01D92A134B207E1F710E0CDE507
:1000F000D0E004C02197FE010E94310BCC35D1071E
:10010000C9F70E940E060C94370B0C94000090E087
:10011000FC01EC55FF4F249180579F4FFC018491C7
:10012000882399F090E0880F991FFC01EA57FF4F50
:10013000A591B491FC01E458FF4F859194918FB73C
:10014000F894EC91E22BEC938FBF0895E0913E027E
:10015000EC3088F540913F0228E830E0241B31095B
:1001600047FD3395220F331F220F331F821793074A
:1001700084F04091400228E532E0241B310947FD1C
:100180003395220F331F220F331F821793070CF46E
:100190009C0122503109220F331F4FB7F8948E2F44
:1001A00090E0FC01EE0FFF1FE80FF91FEF5FFD4F1E
:1001B000328321834FBF0895AF92BF92CF92DF92D7
:1001C000EF92FF920F931F93CF93DF936C017B010C
:1001D0008B01040F151FEB015E01AE18BF08C0179D
:1001E000D10759F06991D601ED91FC910190F08110
:1001F000E02DC6010995892B79F7C501DF91CF91D3
:100200001F910F91FF90EF90DF90CF90BF90AF9034
:100210000895FC01538D448D252F30E0842F90E00C
:10022000821B930B541710F0CF96089501970895F1
:10023000FC01918D828D981761F0A28DAE0FBF2FBA
:10024000B11D5D968C91928D9F5F9F73928F90E010
:1002500008958FEF9FEF0895FC01918D828D98177F
:1002600031F0828DE80FF11D858D90E008958FEFBC
:100270009FEF0895FC01918D228D892F90E0805C85
:100280009F4F821B91098F739927089584E691E00F
:100290000E943A0121E0892B09F420E0822F089581
:1002A00080E090E0892B29F00E94460181110C9496
:1002B00000000895FC01A48DA80FB92FB11DA35A09
:1002C000BF4F2C91848D90E001968F739927848F76
:1002D000A689B7892C93A089B1898C918370806499
:1002E0008C93938D848D981306C00288F389E02D3A
:1002F00080818F7D80830895EF92FF920F931F93EB
:10030000CF93DF93EC0181E0888F9B8D8C8D9813C8
:100310001AC0E889F989808185FF15C09FB7F894D4
:10032000EE89FF896083E889F98980818370806420
:1003300080839FBF81E090E0DF91CF911F910F916B
:10034000FF90EF900895F62E0B8D10E00F5F1F4F7A
:100350000F731127E02E8C8D8E110CC00FB607FC89
:10036000FACFE889F989808185FFF5CFCE010E9417
:100370005A01F1CFEB8DEC0FFD2FF11DE35AFF4F2A
:10038000F0829FB7F8940B8FEA89FB8980818062A5
:10039000CFCFCF93DF93EC01888D8823B9F0AA8962
:1003A000BB89E889F9898C9185FD03C0808186FD30
:1003B0000DC00FB607FCF7CF8C9185FFF2CF80817F
:1003C00085FFEDCFCE010E945A01E9CFDF91CF9199
:1003D000089590E0FC01E859FF4F2491FC01EC5591
:1003E000FF4F3491FC01E057FF4FE491EE23C9F039
:1003F000222339F0233001F1A8F4213019F1223001
:1004000029F1F0E0EE0FFF1FE458FF4FA591B491E2
:100410008FB7F894EC91611126C030953E233C9340
:100420008FBF08952730A9F02830C9F0243049F74C
:10043000809180008F7D03C0809180008F778093B2
:100440008000DFCF84B58F7784BDDBCF84B58F7D0F
:10045000FBCF8091B0008F778093B000D2CF809196
:10046000B0008F7DF9CF3E2BDACF3FB7F894809163
:100470005C0190915D01A0915E01B0915F0126B594
:10048000A89B05C02F3F19F00196A11DB11D3FBFCC
:10049000BA2FA92F982F8827BC01CD01620F711D9B
:1004A000811D911D42E0660F771F881F991F4A9595
:1004B000D1F708958F929F92AF92BF92CF92DF9221
:1004C000EF92FF924B015C010E9435026B017C01AF
:1004D0000E9435026C197D098E099F09683E7340A0
:1004E00081059105A8F321E0821A9108A108B108BD
:1004F00088EEC80E83E0D81EE11CF11C8114910423
:10050000A104B10429F7FF90EF90DF90CF90BF9046
:10051000AF909F908F900895089590E080E00895A7
:10052000FC0101900020E9F73197AF01481B590BFE
:10053000BC0186E292E00C94DC008F929F92AF9215
:10054000BF920F931F93CF93DF93CDB7DEB7A197E1
:100550000FB6F894DEBF0FBECDBF19A2423008F42B
:100560004AE08E010F5D1F4F842E912CB12CA12CDF
:10057000A50194010E94B808E62FB901CA01EA302A
:10058000F4F4E05DD801EE938D01232B242B252B71
:1005900079F790E080E0109719F0CD010E94900269
:1005A000A1960FB6F894DEBF0FBECDBFDF91CF91FD
:1005B0001F910F91BF90AF909F908F900895E95C2D
:1005C000E1CFCF93DF93EC0160E08E810E94E901DF
:1005D00061E08E810E94E90160E08E810E94E90164
:1005E0008BE891E00197F1F7DF91CF910895CF92D9
:1005F000DF92EF92FF920F931F93CF93DF936C01E3
:100600007C0187E0E80EF11CD0E0C0E0062F10E08E
:10061000B8010C2E02C0759567950A94E2F76170D7
:10062000F70181917F010E94E9012196C430D10533
:1006300079F7C601DF91CF911F910F91FF90EF9055
:10064000DF90CF900C94E102CF92DF92EF92FF9275
:100650000F931F93CF93DF93EC01F62E642F8C81C1
:100660000E94E9018D818F3F19F060E00E94E9014D
:100670000F2D10E08F8584FF25C06E0187E0C80E26
:10068000D11CF12CE12CB8010E2C02C07595679598
:100690000A94E2F76170F60181916F010E94E9010D
:1006A000FFEFEF1AFF0A88E0E816F10461F7CE01C8
:1006B000DF91CF911F910F91FF90EF90DF90CF903E
:1006C0000C94E102B80184E0759567958A95E1F78D
:1006D000CE010E94F7026F2DCE01DF91CF911F91C5
:1006E0000F91FF90EF90DF90CF900C94F70240E0D5
:1006F000682F86E292E00C94240381E00E94770345
:100700008BE39FE10197F1F70895CF93DF93823058
:1007100029F49091350298609093350280933902C4
:1007200010923A0280E480933B0280E180933C0285
:1007300080E580933D0280912A020E94870080918B
:100740002B028F3F11F00E94870080912C020E94A3
:100750008700C6E2D2E09E012652324080913502E7
:1007600084FD0AC084E090E02196281739073CF404
:100770008E810E948700EFCF88E090E0F5CF8BE379
:100780009DE00197F1F760E080912A020E94E90163
:1007900060E080912C020E94E90180912B028F3F42
:1007A00019F060E00E94E9018091350284FD34C0B7
:1007B00063E086E292E00E94F702CBE4D6E4CE0149
:1007C0000197F1F763E086E292E00E94F702219739
:1007D000F1F763E086E292E00E94F70283E592E09F
:1007E0000197F1F762E086E292E00E94F7028091C1
:1007F000350280620E94770384E0809336028CE0A9
:100800000E9477030E947D0382E08093370286E096
:10081000DF91CF910C94770380620E9477038BE481
:1008200096E40197F1F78091350280620E94770388
:1008300083E592E00197F1F78091350280620E9492
:100840007703D5CF41E00E94240381E090E0089532
:100850001F920F920FB60F9211242F933F934F9335
:100860005F936F937F938F939F93AF93BF93EF9318
:10087000FF9384E691E00E945A01FF91EF91BF91AE
:10088000AF919F918F917F916F915F914F913F9128
:100890002F910F900FBE0F901F9018951F920F92DF
:1008A0000FB60F9211242F938F939F93EF93FF9383
:1008B000E0917401F09175018081E0917A01F091ED
:1008C0007B0182FD1BC0908180917D018F5F8F73C2
:1008D00020917E01821741F0E0917D01F0E0EC591A
:1008E000FE4F958F80937D01FF91EF919F918F91A6
:1008F0002F910F900FBE0F901F9018958081F4CF0D
:100900001F920F920FB60F9211242F933F938F9344
:100910009F93AF93BF938091580190915901A091FB
:100920005A01B0915B013091570123E0230F2D371D
:1009300058F50196A11DB11D2093570180935801D0
:1009400090935901A0935A01B0935B0180915C018F
:1009500090915D01A0915E01B0915F010196A11D92
:10096000B11D80935C0190935D01A0935E01B093F3
:100970005F01BF91AF919F918F913F912F910F9008
:100980000FBE0F901F90189526E8230F0296A11D09
:10099000B11DD2CF1F920F920FB60F9211242F9339
:1009A0003F934F935F936F937F938F939F93AF93F7
:1009B000BF93CF93DF93EF93FF9380915601C09144
:1009C0002502D0E087FF24C0109285001092840099
:1009D000809156018F5F8093560180915601082EB9
:1009E000000C990B8C179D0724F4809156018C30D4
:1009F000C4F18091840090918500049680349C49D4
:100A000008F47AC08091840090918500049676C0A5
:100A100080915601082E000C990B8C179D07C4F687
:100A2000E09156018E2FEE0F990BFC01EE0FFF1F88
:100A3000E80FF91FEF5FFD4F808186FFC9CFE0917E
:100A400056018E2FEE0F990BFC01EE0FFF1FE80FE2
:100A5000F91FEF5FFD4F808160E08F730E94E90115
:100A6000B7CF2091840030918500E09156018E2F00
:100A7000EE0F990BFC01EE0FFF1FE80FF91FEF5F60
:100A8000FD4F81819281820F931F90938900809303
:100A90008800E09156018E2FEE0F990BFC01EE0FAE
:100AA000FF1FE80FF91FEF5FFD4F808186FF11C028
:100AB000E09156018E2FEE0F990BFC01EE0FFF1FF8
:100AC000E80FF91FEF5FFD4F808161E08F730E9497
:100AD000E901FF91EF91DF91CF91BF91AF919F918C
:100AE0008F917F916F915F914F913F912F910F90D7
:100AF0000FBE0F901F90189580E49CE99093890099
:100B0000809388008FEF80935601E3CF10926701A6
:100B10001092660188EE93E0A0E0B0E08093680157
:100B200090936901A0936A01B0936B0185E091E015
:100B3000909365018093640185EC90E0909371013E
:100B40008093700184EC90E0909373018093720124
:100B500080EC90E0909375018093740181EC90E0BB
:100B6000909377018093760182EC90E090937901E5
:100B70008093780186EC90E090937B0180937A01DA
:100B800010927D0110927E0110927F0110928001DF
:100B9000809125028C30F0F591E0980F909325021A
:100BA00080933E0290E0FC01EE0FFF1FE80FF91F5B
:100BB000EF5FFD4F88EB9BE09283818310922902C7
:100BC0001092280287E191E09093270280932602F9
:100BD00082E080932A028FEF80932B0288E080933B
:100BE0002C0284E080932D0285E080932E0286E023
:100BF00080932F0287E0809330021092310210928E
:100C0000320210923302109234021092350281E0C7
:100C10000C9485038FEF80933E02D0CF789484B5F7
:100C2000826084BD84B5816084BD85B5826085BDE8
:100C300085B5816085BD80916E00816080936E0076
:100C40001092810080918100826080938100809168
:100C50008100816080938100809180008160809319
:100C600080008091B10084608093B1008091B000D9
:100C700081608093B00080917A00846080937A00D4
:100C800080917A00826080937A0080917A008160FE
:100C900080937A0080917A00806880937A00109225
:100CA000C10082E00E9485038CE00E9487008DE0F5
:100CB0000E94870080913E028C3008F050C08AE08C
:100CC0000E94870080913E02282F30E0F901EE0F4C
:100CD000FF1FE20FF31FEF5FFD4F9081907C9A6042
:100CE000908310923F02109240022CE0622F0E94EB
:100CF000250B829FB001112430E020E0AB01420FB0
:100D0000531FFA01EE0FFF1FE40FF51FEF5FFD4FBA
:100D1000908196FD16C02F5F3F4F2C30310571F743
:100D200081110FC01092800082E0809381001092A8
:100D3000850010928400B19A80916F008260809348
:100D40006F00E0913E028E2F90E0FC01EE0FFF1F3E
:100D5000E80FF91FEF5FFD4F808180648083E09191
:100D60007401F091750182E08083E0917001F0914F
:100D700071011082E0917201F09173018FEC808318
:100D800010927C01E0917801F091790186E08083F6
:100D9000E0917601F0917701808180618083E0911C
:100DA0007601F0917701808188608083E0917601FF
:100DB000F0917701808180688083E0917601F091E5
:100DC000770180818F7D808383E08093000164E6DA
:100DD00070E080E090E00E945A020E947D03C8E823
:100DE000D0E008E512E034EB832E912CA12CB12C3D
:100DF00040E0242E40E0342E8091000120E4829FC8
:100E0000C0011124816080937C0080917A0080640D
:100E100080937A0080917A0086FDFCCF6091780003
:100E200070917900072E000C880B990B0E94FE0927
:100E300020E030E849E854E40E94B30A20E030E0C2
:100E400040E256E40E945B09609360017093610187
:100E500080936201909363018FE191E00E94900280
:100E6000C0906001D0906101E0906201F090630158
:100E7000A7019601C701B6010E94200B882309F43F
:100E8000ABC086E291E00E94900282E391E00E9472
:100E9000900285E391E00E94900220E030E048EB70
:100EA00051E46091600170916101809162019091C3
:100EB00063010E94560987FF25C161E08CE00E9412
:100EC000E901E0913902E33008F01AC1E150F0E0A5
:100ED000EA5DFD4F848980680E94770388E391E092
:100EE0000E94900280913F029E01281B310987FDDC
:100EF0003395C901880F991F880F991F0E94A6007A
:100F000020E030E048EC51E46091600170916101B3
:100F100080916201909163010E94AE0A18160CF054
:100F2000F8C0E0913902E33008F0F1C0E150F0E0A0
:100F3000EA5DFD4F848980680E94770388E491E030
:100F40000E94900261E08DE00E94E90180913F02E1
:100F50006E01C81AD10887FDD394CC0CDD1CCC0CD3
:100F6000DD1C0D2C000CEE08FF088091400298015A
:100F7000281B310987FD3395220F331F220F331FA2
:100F8000032E000C440B550B2C193D094E095F092B
:100F9000AAE5B0E00E94AD08A50194010E948E0868
:100FA000DA01C9018C0D9D1DAE1DBF1D0E94A6005A
:100FB00064EF71E080E090E00E945A020E947D039D
:100FC0002114310409F418CF0E944601882309F442
:100FD00013CF0E94000010CF26013701E89477F864
:100FE0002FEF3FEF4FE75FE7C301B2010E94200BF5
:100FF00081110DC02FEF3FEF4FE75FE7C301B20153
:101000000E94560918161CF48AE291E03CCF2FEF9B
:101010003FEF4FE75FE4C701B6010E94AE0A181622
:101020001CF48EE291E02FCF2FEF3FEF4FE75FEC04
:10103000C701B6010E94560987FDF3CF20E030E0DA
:10104000A901C701B6010E94560987FF0AC041E005
:101050006DE286E292E00E942403F7FAF094F7F83A
:10106000F0942AE037ED43EA5BE3C701B6010E9442
:10107000EA082B013C010E94CD096B017C010E9412
:10108000FC099B01AC01C301B2010E94E9082B01DC
:101090003C014AE0C701B6010E949D0241E06EE2B8
:1010A00086E292E00E94240320E030E040E251E436
:1010B000C301B2010E94B30A2B013C010E94CD0979
:1010C0006B01F12CE12C4AE0C701B6010E949D02A0
:1010D000C701B6010E94FC099B01AC01C301B2012A
:1010E0000E94E90820E030E040E251E40E94B30AA7
:1010F0000E94CD0990E080E04AE00E949D02C5CEAA
:10110000E2E0E5CE60E08CE00E94E901F9CEE2E0A9
:101110000ECF60E08DE00E94E9014ACF052E97FBDB
:101120001EF400940E94A50857FD07D00E94B8083D
:1011300007FC03D04EF40C94A508509540953095CB
:1011400021953F4F4F4F5F4F089590958095709533
:1011500061957F4F8F4F9F4F08950E94DA08A59F9A
:10116000900DB49F900DA49F800D911D11240895A2
:10117000A1E21A2EAA1BBB1BFD010DC0AA1FBB1F9B
:10118000EE1FFF1FA217B307E407F50720F0A21B0D
:10119000B30BE40BF50B661F771F881F991F1A947A
:1011A00069F760957095809590959B01AC01BD01A4
:1011B000CF010895A29FB001B39FC001A39F700DFE
:1011C000811D1124911DB29F700D811D1124911D4F
:1011D00008955058BB27AA270E9401090C94740A4D
:1011E0000E94660A38F00E946D0A20F039F49F3F91
:1011F00019F426F40C94630A0EF4E095E7FB0C94C2
:101200005D0AE92F0E94850A58F3BA17620773072F
:101210008407950720F079F4A6F50C94A70A0EF43C
:10122000E0950B2EBA2FA02D0B01B90190010C01F6
:10123000CA01A0011124FF27591B99F0593F50F40E
:10124000503E68F11A16F040A22F232F342F442766
:10125000585FF3CF469537952795A795F04053955E
:10126000C9F77EF41F16BA0B620B730B840BBAF02E
:101270009150A1F0FF0FBB1F661F771F881FC2F799
:101280000EC0BA0F621F731F841F48F487957795AD
:101290006795B795F7959E3F08F0B0CF9395880F67
:1012A00008F09927EE0F9795879508950E94390ABF
:1012B00008F481E008950E946F090C94740A0E945A
:1012C0006D0A58F00E94660A40F029F45F3F29F049
:1012D0000C945D0A51110C94A80A0C94630A0E94A4
:1012E000850A68F39923B1F3552391F3951B550BA8
:1012F000BB27AA2762177307840738F09F5F5F4FE9
:10130000220F331F441FAA1FA9F335D00E2E3AF027
:10131000E0E832D091505040E695001CCAF72BD03F
:10132000FE2F29D0660F771F881FBB1F2617370790
:101330004807AB07B0E809F0BB0B802DBF01FF27C2
:1013400093585F4F3AF09E3F510578F00C945D0A38
:101350000C94A80A5F3FE4F3983ED4F38695779502
:101360006795B795F7959F5FC9F7880F911D96957B
:10137000879597F90895E1E0660F771F881FBB1FD7
:10138000621773078407BA0720F0621B730B840B84
:10139000BA0BEE1F88F7E09508950E948D0A88F039
:1013A0009F5798F0B92F9927B751B0F0E1F0660F29
:1013B000771F881F991F1AF0BA95C9F714C0B1306A
:1013C00091F00E94A70AB1E008950C94A70A672F34
:1013D000782F8827B85F39F0B93FCCF38695779599
:1013E0006795B395D9F73EF4909580957095619582
:1013F0007F4F8F4F9F4F0895E89409C097FB3EF4AD
:1014000090958095709561957F4F8F4F9F4F992351
:10141000A9F0F92F96E9BB279395F69587957795CF
:101420006795B795F111F8CFFAF4BB0F11F460FF8F
:101430001BC06F5F7F4F8F4F9F4F16C0882311F0E7
:1014400096E911C0772321F09EE8872F762F05C0FB
:10145000662371F096E8862F70E060E02AF09A9596
:10146000660F771F881FDAF7880F9695879597F98B
:101470000895990F0008550FAA0BE0E8FEEF161625
:101480001706E807F907C0F012161306E407F50778
:1014900098F0621B730B840B950B39F40A2661F0EC
:1014A000232B242B252B21F408950A2609F4A1408F
:1014B000A6958FEF811D811D089597F99F6780E89C
:1014C00070E060E008959FEF80EC089500240A9496
:1014D0001616170618060906089500240A9412160F
:1014E0001306140605060895092E0394000C11F442
:1014F000882352F0BB0F40F4BF2B11F460FF04C0EF
:101500006F5F7F4F8F4F9F4F089557FD9058440F47
:10151000551F59F05F3F71F04795880F97FB991F52
:1015200061F09F3F79F0879508951216130614060F
:10153000551FF2CF4695F1DF08C01616170618069C
:10154000991FF1CF86957105610508940895E89477
:10155000BB2766277727CB0197F908950E94390AA0
:1015600008F48FEF08950E94C60A0C94740A0E9432
:10157000660A38F00E946D0A20F0952311F00C9451
:101580005D0A0C94630A11240C94A80A0E94850A2F
:1015900070F3959FC1F3950F50E0551F629FF001C6
:1015A000729FBB27F00DB11D639FAA27F00DB11DDF
:1015B000AA1F649F6627B00DA11D661F829F222768
:1015C000B00DA11D621F739FB00DA11D621F839FEF
:1015D000A00D611D221F749F3327A00D611D231FC5
:1015E000849F600D211D822F762F6A2F11249F5713
:1015F00050409AF0F1F088234AF0EE0FFF1FBB1F16
:10160000661F771F881F91505040A9F79E3F5105D4
:1016100080F00C945D0A0C94A80A5F3FE4F3983EB6
:10162000D4F3869577956795B795F795E7959F5F7E
:10163000C1F7FE2B880F911D9695879597F9089510
:101640000E94390A880B990B0895991B79E004C010
:10165000991F961708F0961B881F7A95C9F78095F1
:101660000895EE0FFF1F0590F491E02D0994F89472
:10167000FFCF01000000007C01DC000901C9013A34
:101680000118012C01000000002204DC008D028CF6
:101690000254454D503A20006E616E00696E66003E
:1016A0006F7666002A43000D0A0054656D7020694C
:1016B00073204E4F524D414C210054656D7020698E
:0816C00073204849474821004E
:107E0000112484B714BE81FFF0D085E080938100F7
:107E100082E08093C00088E18093C10086E0809377
:107E2000C20080E18093C4008EE0C9D0259A86E02C
:107E300020E33CEF91E0309385002093840096BBD3
:107E4000B09BFECF1D9AA8958150A9F7CC24DD24C4
:107E500088248394B5E0AB2EA1E19A2EF3E0BF2EE7
:107E6000A2D0813461F49FD0082FAFD0023811F036
:107E7000013811F484E001C083E08DD089C08234E0
:107E800011F484E103C0853419F485E0A6D080C0E4
:107E9000853579F488D0E82EFF2485D0082F10E0AE
:107EA000102F00270E291F29000F111F8ED06801E7
:107EB0006FC0863521F484E090D080E0DECF843638
:107EC00009F040C070D06FD0082F6DD080E0C81688
:107ED00080E7D80618F4F601B7BEE895C0E0D1E017
:107EE00062D089930C17E1F7F0E0CF16F0E7DF06D8
:107EF00018F0F601B7BEE89568D007B600FCFDCFD4
:107F0000A601A0E0B1E02C9130E011968C91119780
:107F100090E0982F8827822B932B1296FA010C0160
:107F200087BEE89511244E5F5F4FF1E0A038BF0790
:107F300051F7F601A7BEE89507B600FCFDCF97BE46
:107F4000E89526C08437B1F42ED02DD0F82E2BD052
:107F50003CD0F601EF2C8F010F5F1F4F84911BD097
:107F6000EA94F801C1F70894C11CD11CFA94CF0C13
:107F7000D11C0EC0853739F428D08EE10CD085E9AC
:107F80000AD08FE07ACF813511F488E018D01DD067
:107F900080E101D065CF982F8091C00085FFFCCF94
:107FA0009093C60008958091C00087FFFCCF809118
:107FB000C00084FD01C0A8958091C6000895E0E648
:107FC000F0E098E1908380830895EDDF803219F02E
:107FD00088E0F5DFFFCF84E1DECF1F93182FE3DFCA
:107FE0001150E9F7F2DF1F91089580E0E8DFEE27F6
:047FF000FF270994CA
:027FFE00040479
:00000001FF
